:020000040800F2
:1000000000000520B1340008013500080135000862
:100010000135000801350008013500080000000026
:10002000000000000000000000000000B96C0008A3
:100030000135000800000000516D000801F80008BB
:1000400001350008013500080135000801350008B8
:1000500001350008013500080135000801350008A8
:100060000135000801350008013500080135000898
:100070000135000801350008013500080135000888
:100080000135000801350008013500080135000878
:100090000135000801350008013500080135000868
:1000A0000135000805F80008013500080135000891
:1000B0000135000801350008013500080135000848
:1000C0000135000801350008013500080135000838
:1000D0000135000801350008013500080135000828
:1000E0000135000801350008013500080135000818
:1000F0000135000801350008013500080135000808
:1001000001350008013500080135000801350008F7
:1001100001350008013500080135000801350008E7
:1001200001350008013500080135000801350008D7
:1001300015F8000811F8000801350008013500081D
:1001400001350008013500080135000801350008B7
:10015000013500080135000821F8000801350008C4
:100160000135000801350008013500080135000897
:1001700001350008013500080135000800000000C5
:100180000135000801350008013500080135000877
:100190000135000801350008013500080135000867
:1001A0000135000801350008013500080135000857
:1001B0000135000801350008013500080135000847
:0801C0000135000801350008BB
:1001D00010B5054C237833B9044B13B10448AFF381
:1001E00000800123237010BDC442012000000000E4
:1001F000687C010808B5034B1BB103490348AFF302
:10020000008008BD00000000C8420120687C010891
:100210004B1C012B98BF70472DE9F003911C9B08E4
:10022000B1F80480B1F802900A8831F802CC804419
:10023000814402448444D9F80070D8F800601568FD
:10024000DCF80040C9F80060C8F80070CCF8005035
:100250001460D9F80470D8F804605568DCF80440DC
:10026000C9F80460C8F80470CCF804505460083130
:10027000013BD5D1BDE8F00370474B1C012B98BF63
:1002800070472DE9F003911C9B08B1F80480B1F888
:1002900002900A8831F802CC00EB580800EB5909AB
:1002A00000EB520200EB5C0CD9F80070D8F800604B
:1002B0001568DCF80040C9F80060C8F80070CCF898
:1002C000005014600831013BDFD1BDE8F0037047F6
:1002D000034613F8012B002AFBD1181A0138704786
:1002E00001F0FF01102A2BDB10F0070F08D010F8E7
:1002F000013B013A8B422DD010F0070F42B3F6D1EB
:10030000F0B441EA012141EA014122F007047FF003
:1003100000070023F0E80256083C85EA010586EA5A
:10032000010685FA47F5A3FA87F586FA47F6A5FA96
:1003300087F68EB9EED1F0BC01F0FF0102F00702A2
:1003400032B110F8013B013A83EA010313B1F8D14D
:100350000020704701387047002D06BF354603382E
:10036000073815F0010F07D1013015F4807F02BF67
:10037000013015F4C03F0130F0BC0138704700BFB8
:1003800081F0004102E000BF83F0004330B54FEA46
:1003900041044FEA430594EA050F08BF90EA020FB3
:1003A0001FBF54EA000C55EA020C7FEA645C7FEA46
:1003B000655C00F0E2804FEA5454D4EB5555B8BF69
:1003C0006D420CDD2C4480EA020281EA030382EADA
:1003D000000083EA010180EA020281EA0303362D6C
:1003E00088BF30BD11F0004F4FEA01314FF4801C3F
:1003F0004CEA113102D0404261EB410113F0004F51
:100400004FEA03334CEA133302D0524263EB430307
:1004100094EA050F00F0A780A4F10104D5F1200EA5
:100420000DDB02FA0EFC22FA05F2801841F1000100
:1004300003FA0EF2801843FA05F359410EE0A5F1D4
:1004400020050EF1200E012A03FA0EFC28BF4CF005
:10045000020C43FA05F3C01851EBE37101F00045BB
:1004600007D54FF0000EDCF1000C7EEB00006EEBC8
:100470000101B1F5801F1BD3B1F5001F0CD3490852
:100480005FEA30004FEA3C0C04F101044FEA4452A9
:1004900012F5800F80F09A80BCF1004F08BF5FEA30
:1004A000500C50F1000041EB045141EA050130BD10
:1004B0005FEA4C0C404141EB010111F4801FA4F1B3
:1004C0000104E9D191F0000F04BF01460020B1FA08
:1004D00081F308BF2033A3F10B03B3F120020CDA40
:1004E0000C3208DD02F1140CC2F10C0201FA0CF01E
:1004F00021FA02F10CE002F11402D8BFC2F1200C83
:1005000001FA02F120FA0CFCDCBF41EA0C01904038
:10051000E41AA2BF01EB0451294330BD6FEA040481
:100520001F3C1CDA0C340EDC04F11404C4F120026C
:1005300020FA04F001FA02F340EA030021FA04F37E
:1005400045EA030130BDC4F10C04C4F1200220FAD5
:1005500002F001FA04F340EA0300294630BD21FA13
:1005600004F0294630BD94F0000F83F4801306BFD9
:1005700081F480110134013D4EE77FEA645C18BFCD
:100580007FEA655C29D094EA050F08BF90EA020F64
:1005900005D054EA000C04BF1946104630BD91EA5C
:1005A000030F1EBF0021002030BD5FEA545C05D15F
:1005B0004000494128BF41F0004130BD14F580049E
:1005C0003CBF01F5801130BD01F0004545F0FE4112
:1005D00041F470014FF0000030BD7FEA645C1ABF47
:1005E000194610467FEA655C1CBF0B46024650EA7E
:1005F000013406BF52EA033591EA030F41F40021AA
:1006000030BD00BF90F0000F04BF0021704730B52F
:100610004FF4806404F132044FF000054FF0000104
:1006200050E700BF90F0000F04BF0021704730B5C5
:100630004FF4806404F1320410F0004548BF40429A
:100640004FF000013EE700BF42004FEAE2014FEAEF
:1006500031014FEA02701FBF12F07F4393F07F4FCA
:1006600081F06051704792F0000F14BF93F07F4FFC
:10067000704730B54FF4607401F0004521F000413F
:1006800020E700BF50EA010208BF704730B54FF0C5
:1006900000050AE050EA010208BF704730B511F0CA
:1006A000004502D5404261EB41014FF4806404F102
:1006B00032045FEA915C3FF4DCAE4FF003025FEA84
:1006C000DC0C18BF03325FEADC0C18BF033202EB0C
:1006D000DC02C2F1200300FA03FC20FA02F001FA66
:1006E00003FE40EA0E0021FA02F11444C1E600BF05
:1006F00070B54FF0FF0C4CF4E06C1CEA11541DBFB8
:100700001CEA135594EA0C0F95EA0C0F00F0DEF882
:100710002C4481EA030621EA4C5123EA4C5350EA67
:10072000013518BF52EA033541F4801143F48013B8
:1007300038D0A0FB02CE4FF00005E1FB02E506F049
:100740000042E0FB03E54FF00006E1FB03569CF09E
:10075000000F18BF4EF0010EA4F1FF04B6F5007FA4
:1007600064F5407404D25FEA4E0E6D4146EB060616
:1007700042EAC62141EA55514FEAC52040EA5E509F
:100780004FEACE2EB4F1FD0C88BFBCF5E06F1ED849
:10079000BEF1004F08BF5FEA500E50F1000041EB80
:1007A000045170BD06F0004646EA010140EA02002D
:1007B00081EA0301B4EB5C04C2BFD4EB0C0541EA4F
:1007C000045170BD41F480114FF0000E013C00F364
:1007D000AB8014F1360FDEBF002001F0004170BD88
:1007E000C4F10004203C35DA0C341BDC04F11404A1
:1007F000C4F1200500FA05F320FA04F001FA05F22D
:1008000040EA020001F0004221F0004110EBD370F9
:1008100021FA04F642EB06015EEA430E08BF20EA25
:10082000D37070BDC4F10C04C4F1200500FA04F3C8
:1008300020FA05F001FA04F240EA020001F000415A
:1008400010EBD37041F100015EEA430E08BF20EACD
:10085000D37070BDC4F1200500FA05F24EEA020E15
:1008600020FA04F301FA05F243EA020321FA04F044
:1008700001F0004121FA04F220EA020000EBD370FB
:100880005EEA430E08BF20EAD37070BD94F0000FFB
:100890000FD101F00046400041EB010111F4801F2F
:1008A00008BF013CF7D041EA060195F0000F18BFE0
:1008B000704703F00046520043EB030313F4801F1C
:1008C00008BF013DF7D043EA0603704794EA0C0FD6
:1008D0000CEA135518BF95EA0C0F0CD050EA4106EC
:1008E00018BF52EA4306D1D181EA030101F0004169
:1008F0004FF0000070BD50EA410606BF1046194691
:1009000052EA430619D094EA0C0F02D150EA01369C
:1009100013D195EA0C0F05D152EA03361CBF1046DD
:1009200019460AD181EA030101F0004141F0FE417C
:1009300041F470014FF0000070BD41F0FE4141F400
:10094000780170BD70B54FF0FF0C4CF4E06C1CEA00
:1009500011541DBF1CEA135594EA0C0F95EA0C0FB5
:1009600000F0A7F8A4EB050481EA030E52EA033570
:100970004FEA013100F088804FEA03334FF0805591
:1009800045EA131343EA12634FEA022245EA1115BE
:1009900045EA10654FEA00260EF000419D4208BF6F
:1009A000964244F1FD0404F5407402D25B084FEA1C
:1009B0003202B61A65EB03055B084FEA32024FF4C8
:1009C00080104FF4002CB6EB020E75EB030E22BF25
:1009D000B61A754640EA0C005B084FEA3202B6EBE5
:1009E000020E75EB030E22BFB61A754640EA5C0094
:1009F0005B084FEA3202B6EB020E75EB030E22BF24
:100A0000B61A754640EA9C005B084FEA3202B6EB24
:100A1000020E75EB030E22BFB61A754640EADC00E3
:100A200055EA060E18D04FEA051545EA16754FEA45
:100A300006164FEAC30343EA52734FEAC2025FEA63
:100A40001C1CC0D111F4801F0BD141EA00014FF0F2
:100A500000004FF0004CB6E711F4801F04BF0143C3
:100A60000020B4F1FD0C88BFBCF5E06F3FF6AFAEDF
:100A7000B5EB030C04BFB6EB020C5FEA500C50F16F
:100A8000000041EB045170BD0EF0004E4EEA1131F2
:100A900014EB5C04C2BFD4EB0C0541EA045170BDF9
:100AA00041F480114FF0000E013C90E645EA060E3D
:100AB0008DE60CEA135594EA0C0F08BF95EA0C0F6B
:100AC0003FF43BAF94EA0C0F0AD150EA01347FF4B3
:100AD00034AF95EA0C0F7FF425AF104619462CE78A
:100AE00095EA0C0F06D152EA03353FF4FDAE1046ED
:100AF000194622E750EA410618BF52EA43067FF43E
:100B0000C5AE50EA41047FF40DAF52EA43057FF4CD
:100B1000EBAE12E74FF0FF3C06E000BF4FF0010CD8
:100B200002E000BF4FF0010C4DF804CD4FEA410C3C
:100B30007FEA6C5C4FEA430C18BF7FEA6C5C1BD009
:100B400001B050EA410C0CBF52EA430C91EA030F8A
:100B500002BF90EA020F0020704710F1000F91EAE7
:100B6000030F58BF994208BF90422CBFD8176FEAB5
:100B7000E37040F0010070474FEA410C7FEA6C5C83
:100B800002D150EA013C07D14FEA430C7FEA6C5C8A
:100B9000D6D152EA033CD3D05DF8040B704700BFB6
:100BA0008446104662468C461946634600E000BF04
:100BB00001B5FFF7B7FF002848BF10F1000F01BDD6
:100BC0004DF808EDFFF7F4FF0CBF012000205DF8A1
:100BD00008FB00BF4DF808EDFFF7EAFF34BF012026
:100BE00000205DF808FB00BF4DF808EDFFF7E0FFBF
:100BF00094BF012000205DF808FB00BF4DF808ED10
:100C0000FFF7CEFF94BF012000205DF808FB00BF76
:100C10004DF808EDFFF7C4FF34BF012000205DF858
:100C200008FB00BF4FEA410C7FEA6C5C02D150EA3E
:100C3000013C0AD14FEA430C7FEA6C5C02D152EAD4
:100C4000033C02D14FF0000070474FF001007047A5
:100C50004FEA410212F5001215D211D56FF47873E4
:100C6000B3EB625212D94FEAC12343F0004343EA87
:100C7000505311F0004F23FA02F018BF4042704762
:100C80004FF00000704750EA013005D111F00040EC
:100C900008BF6FF0004070474FF00000704700BF82
:100CA0004A0011D212F5001211D20DD56FF47873EB
:100CB000B3EB62520ED44FEAC12343F0004343EA40
:100CC000505323FA02F070474FF00000704750EA8B
:100CD000013002D14FF0FF3070474FF000007047F5
:100CE0004FEA4102B2F1E04324BFB3F5001CDCF14E
:100CF000FE5C0DD901F0004C4FEAC0024CEA507086
:100D0000B2F1004F40EB830008BF20F001007047B4
:100D100011F0804F21D113F13872BCBF01F00040B7
:100D2000704741F480114FEA5252C2F11802C2F1E9
:100D3000200C10FA0CF320FA02F018BF40F001006A
:100D40004FEAC1234FEAD32303FA0CFC40EA0C001C
:100D500023FA02F34FEA4303CCE77FEA625307D159
:100D600050EA01331EBF4FF0FE4040F44000704790
:100D700001F0004040F0FE4040F40000704700BF2A
:100D800053B94AB9002908BF00281CBF4FF0FF31F2
:100D90004FF0FF3000F07EB9ADF1080C6DE904CEE4
:100DA00000F006F8DDF804E0DDE9022304B0704746
:100DB0002DE9F0478C460E460446089D002B50D185
:100DC0008A4217466CD9B2FA82FEBEF1000F0BD0F0
:100DD000CEF1200420FA04F401FA0EF644EA060CDF
:100DE00002FA0EF700FA0EF44FEA1749220CBCFB88
:100DF000F9F01FFA87F809FB10C642EA064600FB25
:100E000008F3B34209D9F61900F1FF3280F02281CC
:100E1000B34240F21F8102383E44F61AA2B2B6FB3A
:100E2000F9F309FB136642EA064403FB08F8A04500
:100E300009D9E41903F1FF3280F00A81A04540F29C
:100E40000781023B3C44C8EB040443EA0040002114
:100E5000002D62D024FA0EF400232C606B60BDE8F4
:100E6000F0878B4207D9002D55D0002185E841003D
:100E70000846BDE8F087B3FA83F1002940F090807E
:100E8000B34202D3824200F2F880841A66EB030672
:100E90000120B446002D40D085E81010BDE8F08751
:100EA00012B90127B7FBF2F7B7FA87FEBEF1000FC0
:100EB00035D1F31B4FEA17481FFA87FC0121B3FB1A
:100EC000F8F0220C08FB103642EA06460CFB00F351
:100ED000B34207D9F61900F1FF3202D2B34200F251
:100EE000CE801046F61AA2B2B6FBF8F308FB1366E2
:100EF00042EA06440CFB03FCA44507D9E41903F1BC
:100F0000FF3202D2A44500F2B5801346CCEB0404B4
:100F100043EA00409CE729462846BDE8F087CEF129
:100F2000200106FA0EF307FA0EF720FA01F94FEA4C
:100F30001748CE4049EA0309B6FBF8FA4FEA1944CC
:100F400008FB1A661FFA87FC44EA06430AFB0CF208
:100F50009A4200FA0EF40AD9DB190AF1FF3180F047
:100F600087809A4240F28480AAF1020A3B449B1A8D
:100F70001FFA89F9B3FBF8F108FB113349EA03437F
:100F800001FB0CF69E4207D9DB1901F1FF326BD24F
:100F90009E4269D902393B449B1B41EA0A418EE7D4
:100FA000C1F1200E22FA0EF48B40234320FA0EF7F3
:100FB00006FA01F44FEA134C26FA0EF63C43B6FB50
:100FC000FCF9270C0CFB19661FFA83F847EA064662
:100FD00009FB08F7B74202FA01F200FA01FA08D950
:100FE000F61809F1FF3041D2B7423FD9A9F1020901
:100FF0001E44F61BA0B2B6FBFCF40CFB146640EAE0
:10100000064704FB08F8B84507D9FF1804F1FF307C
:1010100028D2B84526D9023C1F4444EA0940C8EB0F
:101020000707A0FB02894F4544464E4614D329D0FA
:1010300065B3BAEB040367EB060707FA0EFECB4075
:10104000CF404EEA030385E888000021BDE8F08721
:101050001346F8E61046E0E6B8EB020469EB030637
:101060000138E5E70446D8E7114695E78146C0E731
:101070008A467CE7023B3C4448E708460AE70238D8
:101080003E442FE7C245E7D33E46D1E72946BDE8B7
:10109000F08700BF704700BF022910B5C4B22BD043
:1010A00003290FD0012927D140F60C420521204603
:1010B00000F0D0FC002240F20161204600F0CAFCA2
:1010C00000220CE040F60F720521204600F0C2FC21
:1010D000012240F20161204600F0BCFC012240F2F6
:1010E0000261204600F0B6FC022240F20461204674
:1010F00000F0B0FC022218E040F203320521204645
:1011000000F0A8FC012240F20161204600F0A2FCA0
:10111000012240F20261204600F09CFC002240F2D5
:101120000461204600F096FC0022204640F2056152
:1011300000F090FC002010BD08B545F22263C0B25B
:1011400099421FD00BD842F61133994218D0B1F50D
:101150007A5F11D0B1F5FA5F16D1032215E04BF694
:101160008033994210D00C4B994207D04AF6444341
:10117000994209D1732208E0332206E0A32204E059
:10118000132202E0432200E083224FF4047100F0B6
:1011900061FC002008BD00BF007701000022C0B242
:1011A00008B5114600F056FC0020024B1860024BB7
:1011B000186008BDE4420120E042012000F048BC74
:1011C00010B5044600F076FC0021E0B200F054FCBB
:1011D00010BD00000F4B1B6810B5C3B10129C4B28C
:1011E00009D14FF400724FF48461204600F032FCC4
:1011F0004FF4007206E000224FF48461204600F0B4
:1012000029FC002240F22241204600F023FC00206D
:1012100010BD00BFE44201200021FFF7DBBF38B55D
:1012200001210546FFF7D6FF04460122E8B202215C
:1012300000F010FC204638BD0021FFF7CBBF0000B6
:1012400064292DE9F04198BFC1EB81134FF0640789
:1012500005460C4698BF93FBF7F7394B98BFFFB292
:101260001E68002E3FD03E2F1BD9EFB20021FFF7A2
:10127000B1FF40F27F121C210646384600F0EAFB1F
:1012800040F27F121D21384600F0E4FB40F27F124D
:101290002621384600F0DEFB40F27F122721384637
:1012A0001FE021B90121FFF795FF06461BE05FFA19
:1012B00085F847F4A0770021FFF78CFF3A461C2100
:1012C0000646404600F0C6FB3A461D21404600F067
:1012D000C1FB3A462621404600F0BCFB3A46272196
:1012E000404600F0B7FB174B1B682BB3632CEDB2E5
:1012F0004FF480619ABFC4EB04146423EF242846A2
:101300009EBF240194FBF3F4E4B244F480742246BB
:1013100000F0A0FB224640F20141284600F09AFB73
:10132000224640F20441284600F094FB224640F257
:101330000541284600F08EFB3046BDE8F08100BF35
:10134000E4420120E04201202DE9F84F81461F468A
:1013500001F47F4592465FFA89F4CEB200F0AAFB11
:1013600003224FF48171204600F074FB002240F606
:101370001701204600F06EFB00224FF481712046D9
:1013800000F068FB6C223921204600F063FB0DB1B0
:10139000132200E003220121204600F05BFB3220F3
:1013A00000F080FBDFF88CB2A04B002E6FD04FF026
:1013B0000108022EC3F800804FD0032E0FD04645FF
:1013C0004BD140F60C420521204600F043FB0022A1
:1013D00040F20161204600F03DFB00222BE0B5F514
:1013E000006F40F60F724FF0050120461AD100F051
:1013F00031FB3246204640F2016100F02BFB3246C1
:10140000204640F2026100F025FB3246204640F2C1
:10141000046100F01FFB324640F20561204600F0F7
:1014200019FB38E000F016FB424640F2016120460D
:1014300000F010FB424640F20261204600F00AFB39
:10144000022240F20461204600F004FB022240F236
:101450000561204600F0FEFA1AE040F20332052151
:10146000204600F0F7FA424640F20161204600F0C3
:10147000F1FA424640F20261204600F0EBFA002207
:1014800040F20461204600F0E5FA0022DFE71E602A
:10149000002D00F099800123B5F5007FCBF80030D6
:1014A0003CD006D8B5F5807F40F091804FF4437270
:1014B00065E0B5F5407F51D0B5F5006F40F087800D
:1014C00040F63C720421204600F0C4FADB224FF4BF
:1014D0008A61204600F0BEFADB224FF48861204684
:1014E00000F0B8FA46F2A0320221204600F0B2FA2B
:1014F000022240F20661204600F0ACFA022240F2DD
:101500000761204600F0A6FA02224FF4C16120468E
:1015100000F0A0FA022240F2096149E04FF4436270
:101520000421204600F096FADB224FF48A6120461F
:1015300000F090FA4FF4C0420221204600F08AFAEF
:1015400002224FF4C161204600F084FA022240F2E8
:101550000961204600F07EFA0E222DE0112228219A
:10156000204600F077FA35222921204600F072FA51
:1015700035222A21204600F06DFA40F20332042180
:10158000204600F067FADB224FF48861204600F025
:1015900061FA46F250320221204600F05BFA022244
:1015A00040F20661204600F055FA022240F207613F
:1015B000204600F04FFA0D224FF4E061204600F083
:1015C00049FA4FF0000804E0CBF80050F9E74FF07B
:1015D000010845F222639F4223D00BD842F6113313
:1015E0009F421CD0B7F57A5F17D0B7F5FA5F23D1C9
:1015F000032222E04AF644439F4214D004D8B7F5B0
:10160000FA4F19D1632218E04BF680339F4213D072
:10161000074B9F4210D1A3220FE033220DE013228B
:101620000BE0432209E0732207E000BFE4420120FF
:1016300000770100E042012083224FF4047120462C
:1016400000F008FAB5F5006F4FF4407120460CBF6A
:1016500044F2180244F2100200F0FCF9002240F2B9
:101660000231204600F0F6F90A224FF402712046BA
:1016700000F0F0F901224FF40071204600F0EAF981
:10168000002E00F083804FF440720321204600F0CA
:10169000E1F900222221204600F0DCF9002223217A
:1016A000204600F0D7F94FF440723621204600F072
:1016B000D1F943F203020121204600F0CBF9B5F540
:1016C000006F4FF0510120460CBF40F20522052269
:1016D00000F0C0F943F203320121204600F0BAF9CC
:1016E00022226021204600F0B5F949F625724C21EE
:1016F000204600F0AFF90F2000F0D4F901222D218F
:10170000204600F0A7F901222E21204600F0A2F980
:101710004FF44C720321204600F09CF933225421EF
:10172000204600F097F9FA2000F0BCF9EE22602183
:10173000204600F08FF9C0224FF4C261204600F02D
:1017400089F9C02240F21161204600F083F900229D
:101750004FF48461204600F07DF9C02240F212610E
:10176000204600F077F9C02240F21361204600F0D5
:1017700071F9002240F22241204600F06BF95146F7
:101780004846FFF75DFD43F2033200E03246002D8C
:101790004AD0B5F5807F02D0B5F5007F0ED142F07A
:1017A00013020121204600F055F902224FF4C461D2
:1017B000204600F04FF94FF4605217E0B5F5006F86
:1017C00017D142F013020121204600F043F9022212
:1017D0004FF4C461204600F03DF94FF4C0524FF47D
:1017E0008261204600F036F94FF4C05240F21141B8
:1017F00013E0B5F5407F02D0B5F5806F10D10B2214
:101800001821204600F026F90B221A21204600F06C
:1018100021F94FF4C0524FF48261204600F01AF9CA
:1018200051464846FFF70CFD4046BDE8F88F00BF23
:10183000F8B5194E04460F46356855B30121FFF738
:10184000C9FC022F054624D0E4B24FF400724FF4D5
:101850008461204600F0FEF84FF4007240F222410D
:10186000204600F0F7F800222D21204600F0F2F883
:1018700000222E21204600F0EDF80022052120460E
:1018800000F0E8F800222046114600F0E3F80023BB
:1018900033602846F8BD00BFE442012070B58AB02D
:1018A000054603F06BFA002840F09280494B002671
:1018B000494C9D42AE602E610CBF484A484A9D4249
:1018C0006E612A60474AEE616A604FF001022E6243
:1018D000EA60236B3BD143F0800305A942482363B0
:1018E000236B079603F080030193019B80230593EC
:1018F00012230693022308930423099302F096FD12
:101900004FF4807305A93848059302F08FFD236CCE
:1019100032460F21482043F400032364236C03F470
:1019200000030293029B236A43F400032362236AA9
:1019300023F40003236201F045FE482001F07AFE03
:10194000492032460F2101F03DFE49203BE043F0A3
:10195000020305A925482363236B079603F00203BE
:101960000393039B4FF48073059312230693022382
:1019700008930423099302F059FD4FF4007305A95D
:101980001A48059302F052FD236C32460F211F20A6
:1019900043F400132364236C03F400130493049BA7
:1019A000236A43F400132362236A23F4001323629F
:1019B00001F008FE1F2001F03DFE202032460F21DD
:1019C00001F000FE202001F035FE284602F0FDFF68
:1019D0000AB070BDE842012000380240005C0040BF
:1019E0000054004032279140001C02400004024095
:1019F00030B54FF47A7485B005460294BDF82440A2
:101A00000194089C009403F0FDF8044628B1284690
:101A100003F029F82846FFF741FF204605B030BD06
:101A200030B54FF47A7485B005460294BDF8244071
:101A30000194089C009403F02FF8044628B128462E
:101A400003F011F82846FFF729FF204605B030BD06
:101A5000704700001FB552BA04AC022324F8022DCF
:101A60000A460146019300940248FFF7D9FF04B0EB
:101A700010BD00BFE84201201FB5002304AA22F8D0
:101A8000023D02238DE80C000A4601460448FFF798
:101A9000AFFFBDF80E0040BA80B205B05DF804FBA0
:101AA000E842012001F06EBD0148FFF7F7BE00BF1C
:101AB000E8420120FFF7F8BF044B05481A680360AD
:101AC00022F480321A6004F047BB00BF245C01405E
:101AD000944301202DE9F04F344B85B0344D00265E
:101AE0000091012719684FF4803A2B604FF0200BCA
:101AF00021F480314FF480294FF004082D4C1960F7
:101B00004FF40053802168602B6140232846EA612E
:101B10002B640193009B0392696302912B666E61B3
:101B20002E63AE63EF63AE60AF61C5F844B0C5F835
:101B300048A0EE64C5F850906E65AE65C5F85C804F
:101B400004F038FA1C48039AD0F800E0019B2EF408
:101B5000803E20600299C0F800E02046E261032246
:101B60002364009B62602366666126636163A663EB
:101B7000E763A7602661A761C4F844B0C4F848A031
:101B8000E664C4F850906665A665C4F85C8004F00D
:101B900011FA2A68136843EA0A031360226813687B
:101BA00043EA0A03136005B0BDE8F08F045C01400E
:101BB0007844012094430120245C014070470000D8
:101BC0002DE9F0474C4C8AB04FF002080025636CB9
:101BD00003260A27814643F4000305A947484FF02E
:101BE000400A6364636C03F400030093009B236B5F
:101BF00043F480732363236B03F480730193019B8D
:101C0000236B43F480732363236B03F48073029389
:101C1000029B236B43F480732363236BCDF81880FE
:101C200003F48073079508960393039B8023099719
:101C3000059302F0FBFB202305A930480593CDF85E
:101C4000188007950896099702F0F0FB05A92B4824
:101C5000CDF814A0CDF8188007950896099702F0E2
:101C6000E5FB102305A925480593CDF818800795B5
:101C70000896099702F0DAFB236BD9F8002043F4A9
:101C800080032363236B03F480030493049B1C4BA6
:101C90009A4226D11B4C4FF0C06363604FF48063BF
:101CA000C9F86C40204623614FF40063C4F808A0D3
:101CB00063614FF40053E560A3614FF48073A66243
:101CC000E3614FF40033E56223620423256363621A
:101CD0000D4BC4F83890236001F066FD204601F0FA
:101CE000EDFC00220E213C2001F06CFC3C2001F0B8
:101CF000A1FC0AB0BDE8F087003802400020024095
:101D0000045C0140344301207064024010B5A2B06D
:101D10000C4601A803F0C2FF42F611339C4207D0E3
:101D200045F222639C4203D04AF644439C420CD1C4
:101D30004FF4801301934FF48003119340F2AD13DD
:101D400002930223049313230BE04FF480130193B7
:101D50004FF4800311934FF4AC7302930723049361
:101D6000012301A80A9303F0F3FB22B010BD000089
:101D70008AB20146024808B504F00EFA002008BDF8
:101D80009443012008B50EF077F908BD704708B5F7
:101D9000FFF7FCFF08BD704738B50A4804F091FA18
:101DA0000546094805F0EF0504F08BFA0446022DBC
:101DB00001D1FFF703FF04F0DF04022C01D1FFF78C
:101DC000EAFF38BD78440120944301202DE9F04119
:101DD0003B4C8AB002270025636C4FF480680646AE
:101DE00005A943F4000337486364636C03F40003FC
:101DF0000193019B236B43F040032363236BCDF8D6
:101E0000148003F04003069707950293029B0A2370
:101E10000897099302F00AFB236B05A92A4843F0AF
:101E200080032363236B069503F0800307950897CF
:101E30000393039B4FF40043059302F0F7FA236BDF
:101E4000326843F480032363236B03F48003049319
:101E5000049B1E4B9A4220D11D4C4FF400636361DA
:101E60004FF4005334672046A3614FF480736560DC
:101E7000E3614FF40033A56023620323E560A362AE
:101E8000144BC4F810806562E56225632360A66385
:101E900001F08AFC204601F011FC00220F214620AF
:101EA00001F090FB462001F0C5FB00220F21282005
:101EB00001F088FB282001F0BDFB0AB0BDE8F081ED
:101EC0000038024000180240001C0240245C01401F
:101ED00018440120B864024020F48073B3F5007FF9
:101EE0002DE9F04105468846164602D00120BDE89E
:101EF000F0811B4CFFF7E0FD002231462046FFF742
:101F000005FF184B2046236004F0DBF9074638B97B
:101F100001462046FFF754FE39462046FFF756FF9C
:101F2000B5F5007F104C32464FF001000CBF0A217E
:101F30000521FFF7CFFDA3683420984748F6941396
:101F40009842D3D1E36A34209847084B4246294649
:101F50001C60342024683346A0470020BDE8F0818F
:101F600094430120245C014000000120FC2F042048
:101F70002DE9F34116461F464FF44032174B0D46EC
:101F80004FF0340E5A608046154A08981168154A79
:101F9000D8600EFB01221148099C926C022A18BFDE
:101FA00000229A60104A1A6001F070FD98B941460B
:101FB0000A4801F037FE70B9009733462A46214699
:101FC000064801F08FFD30B90A21044802B0BDE88F
:101FD000F04101F0A1BD02B0BDE8F0819C450120B7
:101FE000804501200030042000B00240194A00233F
:101FF00030B512680446342517488FB005FB02023D
:1020000001930393059307938DF834308DF83530A1
:102010008DF836304FF4C063156E0A91FF21526E71
:10202000089307230492069101A90C922246099372
:1020300002950B9502F0A2FF0C20084B4FF0FF31E8
:1020400060431A185160064991604FF07F421A5060
:102050000FB030BD804501200030042084450120B0
:1020600038000120014B1860704700BF80450120F7
:10207000034B1A680C235343024AD050704700BFE9
:102080008045012084450120034B0C211A68034B35
:1020900001FB023398607047804501208445012090
:1020A000084B13B51C68342307490190204603FBF5
:1020B000041100235C3100930EC9FFF759FF02B0F1
:1020C00010BD00BF80450120003004200A4B30B510
:1020D0001C683425094B05FB04339C6C022C1C6ED8
:1020E000DB6D04FB010103D192B223F8112030BD56
:1020F00043F8212030BD00BF80450120003004207E
:102100002DE9F04F324B85B0203A4FF00008D3F85C
:1021100000A0019002910C212E4801FB0A01886861
:10212000B0F80490B0F806B009F107050BFB02F215
:10213000ED1005FB02F4C9EBC501A21C04681444B0
:1021400009F1FF3252FA81F30393029BD84503EB66
:10215000080293B2009338D2012D08D0022D09D184
:1021600014F8026C14F8012C42EA06260BE014F86D
:10217000026C08E014F8016C14F8022C360246EAEE
:102180000242267816430027B9451AD9039B01223B
:10219000D91B8A4032424FF00C0206D0019B02FB51
:1021A0000AF2D8190B4B9A5805E00A4B02FB0A3287
:1021B000019B5268D819009980B2FFF787FF013759
:1021C000E2E708F101082C44BFE705B0BDE8F08F55
:1021D00080450120844501202DE9F84304460E4640
:1021E0001546C5EB020C12F8011B0029F9D1224A51
:1021F000012B2249D2F800E04FF00C02DFF880807A
:1022000002FB0E118F684FF0340101FB0E81B8887C
:10221000096EB1FBF0F207D0022B0BD1CCEB02021E
:1022200012FB00F0001B04E0CCEB0202504304EB75
:10223000500084B223B2A946002B4FF03403D8BF1C
:10224000012403FB0E88C5EB0903B888D8F8601099
:102250009BB219F8012B00FB13139BB2834208D3E6
:102260003AB120463146FFF74BFFB888204484B28C
:10227000E9E7BDE8F88300BF8045012084450120DF
:1022800000300420094B10B41A680C24084B04FBDE
:1022900002330A465DF8044B9B68DB8813FB00F0B1
:1022A000032381B20020FFF797BF00BF80450120C4
:1022B0008445012008B5094B4FF4805108481A683D
:1022C000936943F001039361012202F041FA012274
:1022D00008210448BDE8084002F03ABA0030042062
:1022E00000200240002802404B4B4C485A6C42F000
:1022F0008062F0B55A648FB05A6C02240E2509A989
:1023000002F080624FF48057454E0092009A1A6B9B
:1023100042F400021A631A6B02F400020192019A5D
:102320001A6B42F010021A631A6B02F0100202924A
:10233000029A1A6B42F040021A631A6B02F04002D2
:102340000392039A1A6B42F480721A631A6B02F4B6
:1023500080720492049A1A6B42F400721A631A6B28
:1023600002F400720592059A1A6B42F480621A63B5
:102370001A6B02F480620692069A1A6B42F480721B
:102380001A631A6B02F480720792079A1A6B42F46E
:1023900080621A631B6B0A9403F480630C940D959E
:1023A0000893089B1023099300230B9302F03EF837
:1023B000092309A91B480A940D93099702F036F8DE
:1023C0004FF4664309A930460A9409930D9502F02B
:1023D0002DF84EF6FF7309A9134809930A940D9539
:1023E00002F024F80A94F723104C09A90D95012551
:1023F0002046099302F01AF809A9304609970A9570
:1024000002F014F8082309A920460A95099302F05E
:102410000DF80FB0F0BD00BF0038024000100240C0
:102420000020024000180240002402400028024020
:10243000054808230360C02343610523C3614FF4AB
:102440008033C36203F084B8FC44012010B5282314
:10245000264C0021636109232046A3613523E361F3
:102460000B23236240F21B13A36240F21523636225
:1024700040F21D13236340F23523E362FFF7D8FFD8
:102480004FF4F073204623664FF48873636600238D
:1024900084F8343084F8353084F836306360A360D3
:1024A000E3602361124B236002F091FD014610B9F5
:1024B0002046FFF719FF0D4802F0ECFC01224FF413
:1024C00080510C4802F044F9012208210A4802F028
:1024D0003FF900F023F9094B0C2100201A68084B42
:1024E00001FB0233074A9A6010BD00BF0030042090
:1024F0000068014000200240002802408045012081
:1025000084450120380001202DE9F743224C0126A3
:10251000224D4FF000081027214681464FF6FF72EA
:102520002846CDF80480A660C4F80C8084E8C0007A
:1025300003F0EAFE304601F025F8022321464FF66B
:10254000FF722846A660C4F80C8084E8880003F077
:10255000DBFE032321464FF6FF722846C4F80C80A9
:1025600084E888000823A36003F0CEFE4FF40873CC
:102570004FF6FF722146284601930423A66084E8A3
:102580008800019BE36003F0BFFE4946284603F044
:10259000D2FE03B0BDE8F083DC450120A830042062
:1025A000554B9A6B42F0010270B59A638EB09A6BEC
:1025B00006460EAC514802F0010200250192019A34
:1025C0001A6B42F480021A631A6B02F480020292C0
:1025D000029A1A6B42F004021A631A6B02F00402A8
:1025E0000392039A1A6B42F008021A631A6B02F004
:1025F00008020492049A1A6B42F010021A631A6BD2
:1026000002F010020592059A1A6B42F020021A633A
:102610001A6B02F020020692069A1A6B42F04002F0
:102620001A631A6B02F040020792079A1A6B42F083
:1026300080021A6301221B6B0B9203F08003089344
:10264000089B02230A930C930C230D93082344F850
:10265000143D214601F0EAFE4CF20373214628485E
:10266000099301F0E3FE4FF6837321462548099351
:1026700001F0DCFE4FF63F0321462348099301F0A9
:10268000D5FE48F2331321462048099301F0CEFECF
:10269000282321461E481F4C099301F0C7FE8023C2
:1026A000256320463463A3604FF400736560E360E4
:1026B0004FF48063E56123614FF480536562636189
:1026C0004FF48043E562A3614FF40033A6632362B5
:1026D0000323A362104B236001F066F8204600F04C
:1026E000EDFF2A460F21382000F06CFF382000F063
:1026F000A1FF0EB070BD00BF0038024000080240CC
:10270000000C024000100240001402400018024079
:10271000001C0240084601201064024038B51A4CE3
:1027200007211A4B04221A4D2046236002236960B8
:102730002B602B616B61AB611023E9600021236189
:102740004023616063614FF48073A160A3614FF423
:102750000063E26023624FF48053E1616362A1622F
:10276000AA60FFF71DFF2046294603F0ADFD094C86
:1027700010B10123237000E0207040F20360FFF7E6
:10278000C3FE207838BD00BFA8300420400100A05F
:10279000EC45012040000120B5EEC00A10B5F1EE75
:1027A00010FA044605DB14F0CDFA002084ED000A8F
:1027B00010BD002303604FF0FF3010BD2DE9F84F2E
:1027C0004FEA920906460D4617460446CA46884611
:1027D0002034BAF1000F34D014ED070A404654ED0E
:1027E000087A08F10C0B20EE000A0AF1FF3AA7EE76
:1027F000A70AFFF7D1FF14ED050A54ED067A08F198
:10280000040020EE000AA7EEA70AFFF7C5FF14EDAB
:10281000030A54ED047A08F1080020EE000A08F1DA
:102820001008A7EEA70AFFF7B7FF14ED010A54ED51
:10283000027A584620EE000AA7EEA70AFFF7ACFF7F
:10284000C6E705EB091007F0030706EB491400EB98
:102850008707B84204F108040CD014ED010A051DE5
:1028600054ED027A20EE000AA7EEA70AFFF794FFC4
:102870002846EEE7BDE8F88F2DE9F0478146084687
:10288000B9F800700646D9F8042001EB87087908EA
:102890009646FF0844468B0002EB0717C5184344D1
:1028A0002DED028BBE4506F1100605F1100503F172
:1028B000100304F1100400F08B8014ED040A0EF1F3
:1028C000100E16ED046A54ED030A36EE008A16ED7A
:1028D000034A53ED046A36EE406A53ED034A14EDA1
:1028E000027A14ED015A55ED032A15ED023A55ED21
:1028F000013A53ED027A53ED015A15ED042A06ED23
:10290000048A34EE208A16ED021A34EE604A56ED3F
:10291000011A06ED038A31EE078A31EE477A06ED99
:10292000028A31EE858A31EEC55A72EE261A06ED1C
:10293000018A76EEC26A45ED041A72EEA41A74EEAC
:10294000E24A45ED031A73EE271A77EEC37A45ED96
:10295000021A73EEA51A75EEE35A45ED011A5EED03
:10296000033A1EED043A64EE232AE6EE032A23EE30
:10297000C66AA4EE036A44ED042A04ED036A23EE5A
:10298000646AA6EEA36A66EE836AE4EEA36A03EDC8
:10299000046A43ED036A1EED026A5EED016A65EEAC
:1029A000264AE7EE064A26EEC77AA5EE067A44EDF9
:1029B000024A04ED017A26EE657AA7EEA67A67EE62
:1029C000867AE5EEA67A03ED027A43ED017A69E7AD
:1029D0008CB20223214600F09DFAD9F8042021464A
:1029E00040460223BDEC028BBDE8F04700F092BAEE
:1029F00002885208930052082DE9F04F2DED048B08
:102A00008FB0CC18D0F804B00191E6180892A4F168
:102A10000408019AF51896ED007AA6F1040ED2ED9D
:102A2000007A2F1FD6ED015A37EE876AD4ED004A9F
:102A300037EEC77AD2ED017A95ED005A3B4477EE36
:102A4000A56AD4ED013A77EEE57A95ED014A76EE86
:102A5000245A039036EE646A75EE855A36EE456A5E
:102A600015EE901A42F8081BD4ED015A95ED013A83
:102A700076EEA55A0492019A76EEE36A75EE835AD1
:102A800076EEC46AC2ED015A77EE235A37EE637AC6
:102A9000224675EEC45A37EE047A15EE901A77EE98
:102AA000E45A77EEA47A42F8081B16EE101A75EE77
:102AB000855A0992324677EEC57AC4ED015A42F83A
:102AC000081B17EE101A0A922A46C6ED016A42F850
:102AD000081B0B920BF11802C5ED017A0C92089AB3
:102AE000DDF81090023A0999DDF828C052080592E5
:102AF00005980B9A07900C98069000200290029877
:102B000009F10809A8F10808AEF1080E0830083FDD
:102B1000083B083102900CF1080C07980832002895
:102B200000F0E48059ED027A5CED026A51ED023A60
:102B300077EEA64A19ED017A77EEE66A5CED017A46
:102B400012ED024A37EE275A12ED013A37EE677A54
:102B500051ED017A34EEE36A029874EEA34A76EE00
:102B6000A75A0BEB000A77EE631A75EE672A37EE69
:102B7000237A74EE844A76EEE76A75EEC35A49ED1D
:102B8000024A72EEC32A76EE837A37EE443A11EDAA
:102B9000017A71EE841A35EE075A12ED017A36EE9B
:102BA000446A35EE075A09ED015A97ED024AD8ED0D
:102BB000026A98ED017A76EE844A97ED012A9EED3D
:102BC000028A36EEC44A37EE025AD3ED020A37EED5
:102BD000422AD3ED013A34EEC87ADEED018A74EE72
:102BE000884A35EE681A74EE686A74EEA04A31EECF
:102BF000631A76EEA36AC8ED024A73EEE83ADEED98
:102C0000014A38EE609A37EE607A35EE245AD3EDF9
:102C1000014A33EEC44A32EE090A35EE245A39EE3F
:102C2000422A88ED015A9AED015ADAED004A4FEA3C
:102C3000400A61EE853A0BEB0A00E5EEA43A0D90EE
:102C400065EE655AE1EEA45A41ED023A41ED015AB2
:102C500064EEC05AE6EE855A66EEA46AE0EE056AB6
:102C6000CEED025ACEED016AD0ED005AD0ED016AE8
:102C7000029822EEA65A82440698A6EE255ADA4415
:102C800026EEC66A1830A2EEA56A0CED025A0CEDCB
:102C9000016A26EEC16A67EE266AA7EE656AE1EE72
:102CA000656A87ED026AC7ED016A50ED056A9AED23
:102CB000006A23EE267A06900798A7EE867A0138F6
:102CC000079002ED027A26EEE77A66EE427AA3EEEC
:102CD000067AE4EE267A02ED017AC3ED027A64EE1A
:102CE000067AE2EE267AC3ED017A08E7059905989F
:102CF0000BEB0117059B844618210C98DB00049A06
:102D000001FB0C0109981A4403F1080E1844D2ED96
:102D1000007ADE4484460A981844DCED002A804696
:102D20000B98D8ED006A184498ED017A042337EE29
:102D3000A65A90ED012A77EEE66AD2ED017A77EE97
:102D4000875A77EEC77A9CED017A35EE624A36EE05
:102D5000876A35EE225A76EEC76A36EE423A90ED31
:102D6000006A75EEC74A35EE065A36EE827A77EE7D
:102D7000E23A82ED005A77EEA27ADCED016A34EE97
:102D8000464A73EE863A75EEA65AD0ED016A77EEA2
:102D9000C67A74EEC24A75EEA65AC2ED015A5A4678
:102DA0009EED016ADEED005A63EE866A26EE436A06
:102DB000E3EE256AA3EEA56ACCED006A8CED016A0C
:102DC000D7ED056AD7ED045A24EEA66A66EEC46A0A
:102DD000A4EE256AE4EEA56A88ED006AC8ED016AF2
:102DE000D1ED016AD1ED005A27EEA66AA7EE256A59
:102DF00026EEC77AA7EEA57A80ED006A80ED017A0B
:102E0000BDF820700198394600F084F8039A3946DD
:102E100020460423526800F07DF8039A3946304674
:102E20000423526800F076F8039A04233946526866
:102E300028460FB0BDEC048BBDE8F04F00F06AB837
:102E4000012A2DE9F04106460D46174698460488AA
:102E50001BD0B4F5807F2BD009D8202C28D001D8E6
:102E6000102C02E0402C28D0802C1CD02BE0B4F594
:102E7000806F18D002D8B4F5007F04E0B4F5006F7D
:102E800016D0B4F5805F18D01DE00B1D0022A242C1
:102E900003F10803DDD253ED027A0132F1EE677AD5
:102EA00043ED027AF3E729463046FFF7E5FC0AE0F6
:102EB00029463046FFF79CFD05E001237268214654
:102EC000284600F027F8B8F1000F04D0B268284671
:102ED000B189FDF79DF9012F1AD107EE904AF7EE5F
:102EE000006A0023F8EE677A86EEA77AA34205F11E
:102EF00008050DD255ED027A013367EE877A45ED6C
:102F0000027A55ED017A67EEC77A45ED017AEDE771
:102F1000BDE8F081DFEDCE5AB0EE655A2DE9F04FF5
:102F20002DED108B9DB00D91029201930391039BA7
:102F300000F104084FF0000BDA08D90002EB42055B
:102F40004FEAC209541900EBC50500EB090C130147
:102F500000EBC40E14440CEB090A043500EBC40763
:102F600014440EF1040E0C9300EBC4061444043711
:102F700000EBC404043604345EED017A18ED017AE6
:102F8000DCED006A37EE276A15ED012A37EE677A25
:102F900057ED017A76EEA74A36EEE73ADAED006AA7
:102FA00056ED017A76EEA73A76EEE77A54ED016AAD
:102FB00032EE264A76EE638A32EE662A76EE236A8F
:102FC00034EE846A34EEC48A76EE864A76EEC66AB9
:102FD00048ED014A4EED016A97ED004ADCED013AF9
:102FE000DEED006AD8ED004A73EE841ADAED012AAC
:102FF00073EEC43A96ED004A34EEA66A94ED001AD8
:1030000074EEE64A72EE846A32EEC44AD5ED002AC6
:1030100032EE810A72EEC12A36EE661A76EE266A22
:1030200031EE806A71EEC00A76EE861A76EEC66AD6
:1030300038EEE06AC8ED001A73EE421ACEED006A6F
:1030400078EEA06A88448E44CAED006A71EE486A40
:1030500006ED016A33EEA26ACAED016A78EE016AF2
:103060008A44C6ED006A73EE026A33EEE22A0E4429
:10307000F0EE673AF0EE642AE6EEA57AE6EEE53A7F
:10308000F0EE646AF0EE444AA6EE254AB0EE473A06
:10309000A1EEA57AE6EE654AA1EEE53AE2EE256AF2
:1030A000B0EE446AE2EE652A37EE044A37EE467A1D
:1030B0008CED004A04ED017A33EE247A33EE643A63
:1030C00007ED017A36EEE77A77EEA67A05ED013A5A
:1030D0008CED017A8C44C4ED007A72EEE37A73EEE3
:1030E000A23A0C44C7ED007A0F44C5ED003A0D44F6
:1030F000039B9B440D9B5B453FF63EAF072A40F286
:10310000D181019B4FEA421CDB000E930E9C029B77
:1031100023440593019B1B010F930F9C029B2344A7
:103120000693019B03EB4304E300E5001193029B2C
:103130002B440893019B1C44E300E5001493029B7D
:103140002B440793019B1C44E300E5001393029B6F
:103150002B440B93019B1C44E300E5001293029B5C
:103160002B440A93019B1C44E3001093109C029B88
:10317000234400240993282303FB02FE302303FB8E
:1031800002F7182303FB02F6382303FB02F50123A1
:1031900004930CF10C03159309F10C0316930EF133
:1031A0000C0317930C9B0C33189307F10C03199322
:1031B00006F10C031A9305F10C031B93059BD3ED49
:1031C000001A069B93ED008A089BD3ED004A079BEB
:1031D00093ED009A0B9BD3ED003A0A9BD3ED000AC6
:1031E000099BD3ED002A059B93ED011A069BD3EDB5
:1031F000018A089B93ED014A079BD3ED019A0B9B33
:1032000093ED013A0A9B93ED010A099B93ED012A84
:10321000049B00EBC30A159B03EB0409169B03EB0D
:103220000408179B814403EB040C189B804403EBB8
:10323000040E199B84441F191A9B86441E191B9B5C
:1032400007441D190644049B05440C9302E000BF8B
:10325000F304353F59ED017A5CED016A9AED00AA5D
:1032600018ED01DA1EED01BA3AEE277A3AEE67AAB6
:1032700016ED01EA7DEE267A3DEE66DA57ED016A3B
:103280003BEE266A3BEE66BA55ED016A7EEE26AA53
:1032900037EE46FA37EE066A77EEEAEA77EEAA7A72
:1032A0003EEE66EA36EE277A76EE67AA9AED016A76
:1032B0008AED007AD9ED007AD8ED00CA36EE277A89
:1032C000DEED006A76EE67BADCED007AD6ED00FA44
:1032D000D5ED00DA3CEEA76A7CEEE7CAD7ED007ABE
:1032E00036EEA7CA76EEE77A7FEEAD6A7FEEEDDACC
:1032F00077EE4CFA37EE0CCA36EE667A36EE266A70
:103300007FEE076A3FEE477A3CEE06FA3CEE46CA8D
:103310008AED01FA3FEEEEFA29EE8C6A8A447EEEDF
:10332000AFEAA9EE2A6A09ED016A2AEEE96A7DEEA2
:103330004EAAA9EE0C6AB0EE4ACAAAEE85AAAAEE77
:10334000C5CAF0EE4BAA89ED006A28EE8F6A89445F
:10335000A8EE266A66EEE86AE8EE0F6A0EED016AEC
:103360003CEEED6ACEED006A60EE2E6A8E44E0EE31
:10337000876A27EE407AA0EEAE7A47ED016A7DEECD
:103380000E6AA6EE85BA87ED007A3CEEAD7AF0EED5
:103390006BCA0F44E6EE05BAE6EEC5AAE6EE45CAEC
:1033A000B0EE6B6AF0EE67BAE7EE057AE7EE45BA83
:1033B0007AEE276A7AEE677A3CEE2B7A3CEE6BAABD
:1033C00036EE4BCA3BEE066A3CEEEABA61EE0CBA48
:1033D0007AEEACAAE1EEA6BA66EEC16AE1EE8C6ABC
:1033E00048ED01BAC8ED006A62EE066A8844E2EE72
:1033F000A76A45ED016A67EEC26A63EE0B7AE2EEF8
:10340000866AE3EE877A27EE437AA3EE8B7AC5EDE0
:10341000006A0D444CED017A64EE2A7AE4EE8A7A71
:103420008CED007A8C4446ED017A6AEE447AE4EE43
:10343000AA7AC6ED007A0E440C9B9B46039B9B44E4
:103440000D9BCDF830B09B460C9B9B453FF602AFE1
:10345000049B08340E9D01330493059B2B440F9D60
:103460000593069B2B44119D0693089B2B44149DAA
:103470000893079B2B44139D07930B9B2B44129D92
:103480000B930A9B2B44109D0A93099B2B44099391
:10349000049B9A427FF492AE019B0392DB009BB2A5
:1034A000019344E51DB0BDEC108BBDE8F08F00BF6B
:1034B000DFF834D0002103E00C4B5B58435004315B
:1034C0000B480C4B42189A42F6D30B4A02E00023F9
:1034D00042F8043B094B9A42F9D300F013F80DF07F
:1034E00011FF0BF051FD704700000520C8FC0208D9
:1034F00000000120FC050120C44201201098042096
:10350000FEE700000F490020D1F8883043F4700333
:10351000C1F888300C4B1A6842F001021A609860BA
:103520001A6822F0847222F480321A60074A5A60C4
:103530001A6822F480221A60D8604FF000638B6012
:10354000704700BF00ED00E000380240103000245A
:1035500008B5032000F024F800200BF043FA0BF02C
:1035600077F8002008BD0000024A13680133136099
:10357000704700BFDC300420014B1868704700BF63
:10358000DC30042013B50190FFF7F6FF0446FFF787
:10359000F3FF019B001B9842F9D302B010BD00005D
:1035A000074A0002D36800F4E06023F4E0631B04E0
:1035B0001B0C43F0BF6343F400330343D3607047F5
:1035C00000ED00E0194BDB68C3F3022330B5C3F113
:1035D00007041D1D042C28BF0424062D4FF00105EF
:1035E0008CBF033B002305FA04F4002804F1FF34E8
:1035F00004EA010404FA03F405FA03F303F1FF33C8
:1036000002EA030242EA04024FEA021205DA00F07B
:103610000F00D2B2064B1A5430BD00F16040D2B256
:1036200000F5614080F8002330BD00BF00ED00E0F0
:1036300014ED00E04209012300F01F0003FA00F03E
:10364000014B43F82200704700E100E00138B0F17F
:10365000807F0AD2064BF021064A5860002082F88B
:103660002310072298601A6070470120704700BF3E
:1036700010E000E000ED00E0044B04281A680CBFE5
:1036800042F0040222F004021A60704710E000E0E9
:1036900003681821DAB223F47F73103A23F003038E
:1036A000B2FBF1F20449032A895C88BF0433C16587
:1036B0008365806D704700BFC0F0020870B5044696
:1036C000FFF75AFF0546002C64D00023226884F8D7
:1036D0003430022384F83530136823F0010313607B
:1036E00021680B68D80708D5FFF746FF401B05285F
:1036F000F6D920230320636551E00B68294A6568E9
:103700001A40A368A0691D43E3681D4323691D4354
:1037100063692B43E56903432B43256A2B4313431A
:10372000626A042A01BF256BE66A35432B43042AEB
:103730000B604B6923F0070343EA02031CD1A26A22
:10374000134320B9012A0BD013D3022A10E0B0F59D
:10375000005F0AD1032A0FD8DFE802F01E0B1E0219
:10376000E26AB2F1C07F07D116E0022A14D9032A17
:1037700002D1E26AD2010FD44B612046FFF788FFE5
:10378000E26D3F239340836000200123606584F84D
:10379000353070BD012070BD40230120636584F881
:1037A000350070BD3F8010F038B50546E8B190F89F
:1037B0003540E4B2022C1AD0036800241A6822F0C3
:1037C00001021A6021221C605C609C60DC601C614C
:1037D0005A61FFF75DFFEA6D3F23934083606C659C
:1037E00085F8344085F8354001E0012038BD204699
:1037F00038BD70B590F83440012C37D00124866D67
:10380000002580F8344090F83540012C4FF0020438
:1038100028D180F8354004684565256825F4802561
:10382000256063608368402B02D1A260E16001E003
:10383000A160E260C26D3F239340B360236843F010
:1038400016032360636943F080036361036C1BB15B
:10385000236843F0080323602368002043F001033A
:10386000236070BD80F83450204670BD022070BDCA
:103870000023F7B501930446594B856D1F68082353
:10388000C26D2E6893401E420CD001680868400744
:1038900008D5086820F004000860AB60636D43F051
:1038A000010363654F4B93401E4208D0216849696C
:1038B000090604D5AB60636D43F0020363654A4BB0
:1038C00093401E4208D021680968880704D5AB6080
:1038D000636D43F004036365102303FA02F216429A
:1038E00017D023681968090713D5AA601A6850030E
:1038F00004D51B68190308D5A36C07E01A68D20524
:1039000003D41A6822F008021A60236C0BB1204617
:103910009847E16D20228A4016423BD02368186800
:10392000C60637D5AA6094F83520052A1A6819D139
:1039300022F016021A605A6922F080025A61226C43
:103940000AB9A26C1AB11A6822F008021A603F2361
:103950008B40AB60002384F83430012384F8353089
:10396000236D37E0500304D51B6819030ED4636C34
:103970000DE01A6812F4807208D1196821F0100164
:103980001960012384F8342084F83530E36B0BB1DF
:1039900020469847636D03B3636DDA0719D5052395
:1039A000226884F83530136823F0010313604FF464
:1039B0001653B7FBF3F7019B01339F42019302D3E8
:1039C0001368DB07F7D4002384F83430012384F82C
:1039D0003530E36C0BB12046984703B0F0BD00BF13
:1039E000440001200100800004008000F0B504685C
:1039F000254D666C95FAA5F506F04047B5FA85F5B4
:103A0000059EAB403E43334363644368E263B3F5D2
:103A1000403F36D101F07F4601F47F0301F47F423D
:103A2000CDB2816821B93343134343EA050126E04F
:103A3000012903D11A4342EA050120E0022907D1F6
:103A4000D80C920AC00240EA421242EAD50116E0BE
:103A500003290AD1D80CD20A8002F30F40EA42129D
:103A600042EAD50141EAC33109E0180D120B000208
:103A7000330F40EA021242EA151141EA0331A16311
:103A8000F0BDE160F0BD00BF0000FF3F10B504468F
:103A900030B390F8393003F0FF021BB980F83820BA
:103AA0000AF006FE0223002084F8393023681A68E1
:103AB00022F4403162680A431A605A6B22F007010F
:103AC000A2680A43E1685A631A6C22F47F5222F01A
:103AD0003F020A431A640123E06384F8393010BDC1
:103AE000012010BD73B590F838400546012C4FF009
:103AF00002040ED080F839400126069C80F8386018
:103B00000094FFF773FF2A680020136833431360A3
:103B100000E0204602B070BD002373B50193044657
:103B200003680D461B68DB0704D42368DA69960630
:103B300027D533E0FFF720FD064623685A68920731
:103B4000F3D45A680192019A12F0210F0FD0019A12
:103B5000950603D5E26B42F00202E263019AD007B8
:103B600003D5E26B42F00102E26321223BE0691CD3
:103B7000E4D0002D41D0FFF7FFFC801B8542DCD252
:103B80003BE05B6A9B0609D42368122200209A60FE
:103B9000012384F8380084F8393040E0FFF7ECFC6A
:103BA00006463AE0691C27D15A68D206ECD45A6816
:103BB0000192019A12F0290FF4D0019A160703D549
:103BC000E26B42F00402E263019A950603D5E26BD0
:103BD00042F00202E263019AD00703D5E26B42F0A1
:103BE0000102E26329229A600423012084F839301B
:103BF000002384F8383012E055B9E36B032043F01A
:103C00002003E363002384F8390084F8383006E0A9
:103C1000FFF7B2FC801B8542EFD32368C4E702B0F4
:103C200070BD000090F83830012B4FF00203F0B562
:103C30003AD00E01012280F839304FF44033841914
:103C400080F83820E76993FAA3F3B3FA83F2236A82
:103C5000656A9340046843EA0702093F012F04D8CC
:103C600005F07F43134351B920E04FF07F4393FAAF
:103C7000A3F3B3FA83F305FA03F3134311B3E16932
:103C80000644144A012F02EA010243EA0203E361F7
:103C9000B369236102D825F07F452562012380F8AE
:103CA0003930002380F838301846F0BD616A094A7F
:103CB0000A40134363628369A361436A23F07F432D
:103CC000A362EBE7616A034A0A40134363628369B4
:103CD000A361E3E7F0FFFC00002337B541F21804CD
:103CE00001930368054601201A5942F480121A51C3
:103CF0001B590193FFF746FC2B68019A1A5103B038
:103D000030BD000070B5044629B14FF40063C360B4
:103D10004FF480438360E3692168002BE268A36865
:103D20000D6808BF4FF4806042EA03022E4B18BFB3
:103D3000002042F400722B401343034301200B6028
:103D40000D68FFF71FFC2368402201201D605A60A8
:103D50005D68FFF717FC23684FF6417201205D6034
:103D600000259D60DD6099690A4042F080029A61F9
:103D70009E69FFF707FC236801209E61DD61DD6914
:103D8000FFF700FC22680120184BD56141F21805AD
:103D900051590B4043F0087343F0040353515659F3
:103DA000FFF7F0FB23680120114A5E5103F58053B1
:103DB0001A601D68FFF7E6FB226802F580531D605C
:103DC000A369012B07D141F21C01535843F48033FE
:103DD00043F0400353506369064A998811601A689A
:103DE000054B1A6070BD00BF0F8120FF233FDEF836
:103DF0008020C1024080024044800240F0B590F82B
:103E00004540012C4FF0020433D0012580F8444096
:103E10004FF4801701F1200480F8455040F2F45E21
:103E2000002503F1FF3CC1629D4216D00EFB052622
:103E300044F8207C44F8186CC6692EB954F8206CFC
:103E400046F4400644F8206C65452CBF0E462646D5
:103E50000135203444F8346CE6E7026841F210037F
:103E6000D150012380F84430002380F845301846B3
:103E7000F0BD2046F0BD2DE9F04190F84540012C01
:103E80004FF0020430D0012580F844404FF0004646
:103E900001F1200480F8455044F2F457002540F227
:103EA000F45E03F1FF3C81629D4210D00EFB0528B9
:103EB00044F8206C44F8188C65452CBF8846A04611
:103EC00044F81C7C013544F8148C2034ECE702687B
:103ED00041F20C03D150012380F84430002380F8D4
:103EE00045301846BDE8F0812046BDE8F08100006D
:103EF00090F84530012B4FF00203F0B56AD0012253
:103F000080F8443080F8452021B980F8442080F8BA
:103F1000451009E0C36A1C68002C07DA122380F8F8
:103F20004430002380F845301046F0BD40F2F45490
:103F3000A14214D9B1FBF4F204FB12140CB101320A
:103F400001E0012A0BD0244C01F2F45140F2F45666
:103F5000571E04FB02110024C1F30C011CE01A6877
:103F6000C1F30C0142F0405259601A601A6842F0E5
:103F700000421A60DB681AE0A7425E6004D11D6847
:103F8000596045F000551D601D68013445F000453D
:103F900094421D60DB680AD01D6825F040551D6005
:103FA000002CE9D11D6845F080551D60E4E7C3622F
:103FB00041F2140203689958490705D50421995024
:103FC000002141F204029950012380F8443000237B
:103FD00080F845301846F0BD0CFAFFFF90F84530E8
:103FE000012B4FF0020330B53BD00122062480F8AC
:103FF0004430114680F84520836A1A68002A2ADB7B
:10400000013C28D01A68DD6802F44072B2F5007FE6
:1040100002D10363816306E01A6812F4407F826B69
:1040200003D1013282638562E6E701324363012AEC
:10403000826308BF03631B68C3F30D43043BC36380
:10404000036B9B6885620364012380F8443000237E
:1040500080F8453005E00123002280F8443080F8E4
:104060004520184630BD7047704770B5026841F270
:1040700014060446935913F040050BD00AF052FA87
:10408000236840229A51012384F84430002384F8A5
:1040900045300BE09359DA0708D5FFF7E4FF012319
:1040A0002268935184F8443084F84550236841F2E3
:1040B00014054FF480325A515B591B040CD520462D
:1040C000FFF7D2FF23684FF400425A51012384F8CE
:1040D0004430002384F8453070BDF8B590F8443082
:1040E00005461646822B31D082232C8A80F8443034
:1040F000E4020068A4B2036903F01C0244EA02036C
:104100008C0104F4F8641C4344F001040461FFF7DB
:1041100033FA074614F0010010D0FFF72DFAC01B48
:10412000B0F5803F07D30123032085F844300023F6
:1041300085F84530F8BD2B681C69EBE72B685B6997
:104140009BB23360012385F84430F8BD0220F8BDEE
:1041500090F84430422B70B505462ED042232C8A6D
:1041600092B280F84430E4020068A4B2036942616C
:1041700003F01C0343F0030323438C0104F4F864AD
:104180001C430461FFF7F8F9064614F0010010D053
:10419000FFF7F2F9801BB0F5803F07D3012303201E
:1041A00085F84430002385F8453070BD2B681C69C4
:1041B000EBE7012385F8443070BD022070BD00009C
:1041C0000023F7B504460093002800F0D98090F84A
:1041D000443003F0FF021BB980F845200AF03AF999
:1041E000694B5A6C42F480425A645B6C03F480431E
:1041F0000193019B654B5A6822F400025A6059688A
:10420000226A0A435A60236803F580531A6842F011
:1042100001021A60FFF7B0F90546236803F58052E2
:104220001268D0070CD5FFF7A7F9401BB0F5FA7F4D
:10423000F3D90325002384F8445084F84530A0E0E6
:104240001D6901F049F9524B524A25F01C050344FF
:10425000934202D845F0080515E04F4B4F4A0344FE
:10426000934202D845F00C050DE04D4B4D4A0344F6
:10427000934208D94C4B4D4A0344934294BF45F0B6
:10428000040545F0100523684FF400420021204644
:104290001D61FFF75DFF054600285DD140F6FF7008
:1042A000FFF770F96368002B4BD0FFF765F941F217
:1042B000883706466A4601212046FFF70EFFFFF7C2
:1042C0005BF9801BB84219D8009B5907F2D54FF40F
:1042D000805200212046FFF73BFF00283CD1FFF72A
:1042E0004BF941F2883706466A4601212046FFF71E
:1042F000F4FEFFF741F9801BB8420BD9012120469B
:10430000FFF700FD0123032584F84430002384F8DF
:10431000453036E0009B9A06E6D56A461F212046C6
:10432000FFF7DBFEC0B9009B13F0100218BF4FF47B
:1043300000625B074CBF00234FF48043E260A36040
:1043400016E0A3682946E26820465B0843EAD202E9
:1043500092B2FFF7FDFE38B1012501212046FFF79B
:10436000D1FC84F844500CE040F6FF70FFF70AF9E6
:1043700000212046FFF7C6FC012384F8443000E00A
:104380000125284603B0F0BD003802400038014046
:1043900000D3CEFEBFE1E40040F1E9FD3F787D01AE
:1043A00000796CFCFF596202001F0AFA7FF0FA02E2
:1043B00090F84530012B73B505464FF0020033D01D
:1043C00000242B6885F84400012601941A683046C1
:1043D00085F8456042F008021A601B680193FFF7F8
:1043E000D1F8019A30462B681A6000941A6842F09E
:1043F00004021A601B680093FFF7C4F82B68284674
:10440000009A1A60FFF768FC2A6841F218032046F8
:10441000D15841F40051D150D15841F00201D1504E
:1044200085F8446085F8454002B070BD2DE9F04F35
:104430000B6885B06F4E01930023DFF8C0C1B6460C
:10444000DFF8BC810122019C9A4032EA040440F06A
:10445000C9804C6824F01009B9F1020F14D14FEA59
:10446000D30A03F0070B0F2500EB8A0A4FEA8B0BE8
:10447000DAF8207005FA0BF527EA05050F6907FA47
:104480000BF72F43CAF820704FEA430A0325076849
:1044900004F0030B05FA0AF509F1FF390BFA0AFBE0
:1044A000ED43B9F1010F07EA05074BEA070707607B
:1044B00012D8876805EA0709CF6807FA0AF747EABA
:1044C0000907C4F30019876009FA03F9476827EA66
:1044D000020749EA07074760C7683D408F6807FA47
:1044E0000AF73D43C560E5007CD5DCF8445023F075
:1044F000030703F0030A4FF00F0945F4804507F165
:1045000080474FEA8A0ACCF8445007F59C37DCF81C
:10451000445005F480450395039D09FA0AF5D7F840
:1045200008B02BEA0509344DA84224D005F5806572
:10453000A84222D005F58065A84220D005F5806507
:10454000A8421ED005F58065A8421CD040451CD06D
:1045500005F50065A8421AD005F58065A84218D077
:1045600005F58065A84216D005F58065A84214BF00
:104570000A25092510E000250EE001250CE00225A2
:104580000AE0032508E0042506E0052504E00625E9
:1045900002E0072500E0082505FA0AF514F4803F3B
:1045A00045EA0905BD606FEA020735680CBF3D406A
:1045B000154314F4003FCEF80050DEF804500CBF51
:1045C0003D40154314F4801F7560B5680CBF3D4035
:1045D0001543A402CEF80850DEF80C5054BF3D40FD
:1045E0001543F5600133102B7FF42CAF05B0BDE807
:1045F000F08F00BF003C0140000002400038024044
:10460000001402402DE9F04F00224D4CDFF838A194
:10461000DFF838B14FF0010909FA02F535EA010374
:1046200040F08780032302FA09F6076802F0070EBC
:1046300003FA06F622FA03FC4FEA8E0EED43F64328
:1046400000EB8C0C374007600F27DCF8208007FA5E
:104650000EFE28EA0E0ECCF820E0D0F808E006EABC
:104660000E0EC0F808E0D0F804E00EEA050EC0F81F
:1046700004E0D0F80CE006EA0E0602EA030E314B25
:10468000C66022F003064FEA8E0E984206F180467D
:1046900007FA0EF706F59C36D6F808C00CEA070CA8
:1046A00022D003F58063984220D003F580639842BE
:1046B0001ED003F5806398421CD003F580639842B6
:1046C0001AD003F58063984218D0504518D0584549
:1046D00018D003F54063984216D003F580639842E2
:1046E0000CBF09230A2310E000230EE04B460CE028
:1046F00002230AE0032308E0042306E0052304E084
:10470000062302E0072300E0082303FA0EF39C458A
:104710000FD1B36823EA0707B76023682B402360F3
:1047200063682B406360A3682B40A360E3681D406F
:10473000E5600132102A7FF46DAFBDE8F08F00BF55
:10474000003C01400000024000180240001C0240F2
:1047500002B909048161704703689A69910701D51C
:1047600000229A629A69D20703D49A6942F0010240
:104770009A61704730B50568C1F30901054C686856
:1047800004400398204303430B4343EA02426A6018
:1047900030BD00BF009800FC2DE9F041069F0446A3
:1047A000884616461D462268936938EA03030CBF03
:1047B00001230023B34213D16B1CF5D055B920233C
:1047C000032084F84130002384F8423084F84030DC
:1047D000BDE8F081FEF7D0FEC01B8542E3D2EEE7D4
:1047E0000020BDE8F0810000036870B504469869B8
:1047F0000D46164610F010000BD170BD99698A065F
:1048000013D4691CFAD035B1FEF7B6FE801B854281
:1048100001D32368F2E72023032084F841300023EA
:1048200084F8423084F8403070BD102220252046A4
:10483000DA61DD61FFF790FF2268074B01205168C4
:104840000B40536004236364002384F8415084F8D0
:10485000403084F8423070BD00E800FE70B5044678
:104860000D46164623689B699B071CD43246294691
:104870002046FFF7B9FFC0B96A1CF3D06DB9636C6D
:10488000032043F020036364202384F84130002395
:1048900084F8423084F8403070BDFEF76DFE801B16
:1048A0008542DFD2EBE7002070BD012070BDF7B577
:1048B0001F464FF400530446099E009315464FF0DF
:1048C0008073FAB2FFF756FF324608992046FFF789
:1048D000C5FF20B1636C042B0ED1012019E0012F1C
:1048E00023680BD1EDB20022802120469D62089BF7
:1048F0000096FFF751FF60B103200AE02A0A0899E9
:1049000020469A623246FFF7A9FF0028E2D12368C9
:10491000E8E703B0F0BDF7B51F464FF40053044677
:10492000099E009315460023FAB2FFF723FF324693
:1049300008992046FFF792FF20B1636C042B0ED13B
:10494000012019E0012F23680BD1EDB20022402194
:1049500020469D62089B0096FFF71EFF60B1032072
:104960000AE02A0A089920469A623246FFF776FF43
:104970000028E2D12368E8E703B0F0BD70B5044633
:104980000D46164623689B699B061AD43246294673
:104990002046FFF729FFB0B96DB9636C032043F0DF
:1049A00020036364202384F84130002384F84230DC
:1049B00084F8403070BDFEF7DFFD801B8542E1D2F8
:1049C000EBE7002070BD012070BD10B50446002843
:1049D00047D090F8413003F0FF021BB980F8402027
:1049E00009F07AFE2423E16884F8413023681A68CC
:1049F00022F001021A60626822F070621A619A68FD
:104A000022F400429A60A26842B1012903D142F423
:104A100000429A6007E042F404429A60022902D1FF
:104A20004FF400625A605A680020216942F0007217
:104A300042F400425A6062690A43A16942EA0122D3
:104A4000E169DA60226A0A431A601A6842F00102D8
:104A50001A602023606484F84130206384F84200A7
:104A600010BD012010BD10B5044698B10268242382
:104A700080F84130136823F00103136009F054FEFD
:104A80000020606484F8400084F84100206384F8CA
:104A9000420010BD012010BD2DE9F04F9B4690F85B
:104AA000413085B00446202B0F460392BDF83CA050
:104AB000DDF8409040F09F800E9B0BB901209BE0F9
:104AC000BAF1000FFAD090F84030012B00F093803B
:104AD000012580F84050FEF74FFD1923009006464F
:104AE0002A464FF400412046FFF756FE8046002834
:104AF0004ED1212360630196394684F8413040232A
:104B0000CDF8009084F842300E9B606420466362CA
:104B10005B46A4F82AA0039AFFF7C9FE18B1636C9C
:104B200084F8408056E0638D9BB2FF2B05D9FF22AD
:104B300000904FF08073228506E0628D4FF0007385
:104B4000009092B22285D2B239462046FFF712FE7B
:104B5000324649462046FFF781FE002839D1636A74
:104B60002268591C61621B789362228D638D013A21
:104B7000013B92B29BB22285638502BB638D9BB2DF
:104B8000EBB100964B4680212046FFF705FE08B1A9
:104B9000032031E0638D9BB2FF2B05D9FF220090EB
:104BA0004FF08073228506E0628D4FF00073009015
:104BB00092B22285D2B239462046FFF7DBFD638DE3
:104BC0009BB2002BC4D1324649462046FFF7D6FEA1
:104BD00018B1636C042BDBD170E723682021084AED
:104BE000D9615D682A405A6084F8411084F8400019
:104BF00084F8420000E0022005B0BDE8F08F00BF5D
:104C000000E800FE2DE9F04F9B4690F8413085B05A
:104C10000446202B0F460392BDF83CA0DDF84090DF
:104C200040F0A5800E9B0BB90120A1E0BAF1000F66
:104C3000FAD090F84030012B00F09980012580F8DF
:104C40004050FEF799FC1923009006462A464FF47F
:104C500000412046FFF7A0FD8046002877D122239F
:104C600060630196394684F841304023CDF80090C6
:104C700084F842300E9B6064204663625B46A4F871
:104C80002AA0039AFFF747FE18B1636C84F84080AE
:104C90005AE0638D9BB2FF2B07D94FF41053FF22CC
:104CA00000934FF08073228508E0628D4FF410531B
:104CB00092B200934FF000732285D2B2394620465B
:104CC000FFF758FD00964B46002204212046FFF7CF
:104CD00063FD00283BD1636A5A1C62622268526AF3
:104CE0001A70228D638D013A013B92B29BB22285EC
:104CF0006385F2B9638D9BB2DBB100964B46802190
:104D00002046FFF749FD10BB638D9BB2FF2B05D9F1
:104D1000FF2200904FF08073228506E0628D4FF0F5
:104D20000073009092B22285D2B239462046FFF736
:104D300021FD638D9BB2002BC4D1324649462046EB
:104D4000FFF71CFE28B1636C042B3FF46DAF03200A
:104D50000EE023682021084AD9615D682A405A6024
:104D600084F8411084F8400084F8420000E00220FA
:104D700005B0BDE8F08F00BF00E800FE90F84100EC
:104D800070472DE9F0430468D2014F684FF00008E6
:104D900004F1840EE568D1F800C002EB0E03C5F300
:104DA0000B455868EE190CF1010500F4704058608D
:104DB000E068C0F30B402844CD6840EA06405860E4
:104DC000E068C0F30A00461998688D6800F47040E6
:104DD0009860681CE4688D69C4F30A04204440EAC2
:104DE00006400E699860186920F0070018611E617E
:104DF000986991F8314091F83290C3F8188091F891
:104E0000300040EA056545EA042444EA09449C610F
:104E1000586920F0FF00586148695861D86920F44A
:104E2000E06020F00700D861CD690C6A2C43DC619A
:104E3000986A486AC3F8288098624EB1012E09D05A
:104E4000B01E022808D9072E0CBF0220012004E062
:104E5000042002E0032000E00220DC6ACCEB07071C
:104E600004F0E024DC628C6AC96A4443784303306E
:104E700040EA0440D862186B20F4FF6020F007007D
:104E80001863196352F80E3043F0010342F80E30F4
:104E9000BDE8F08338B5044600286AD090F8A13008
:104EA00003F0FF021BB980F8A02009F053FC022395
:104EB00084F8A13023689A6922F070429A6162688E
:104EC00099691143A2681143E268114322690A43B8
:104ED0009A61294A99680A4061699A60A26998684A
:104EE000024342EA01429A60234AD9680A40E169D2
:104EF000DA60226AD868024342EA0142DA601E4A56
:104F000019690A40616A1A61A26A1869024342EA91
:104F100001421A61184A59690A40E16A5A6158699E
:104F2000226B024342EA01425A61D96A94F8360080
:104F300001F07F4194F83520D962D96A94F8345051
:104F4000294341EA022242EA00420020DA625A6B17
:104F500042F004025A635A6B42F002025A639A69A1
:104F600042F001029A610123C4F8A40084F8A13040
:104F700038BD012038BD00BF00F800F0F8B590F84A
:104F8000A03006468E469446012B4FF002001DD0FD
:104F9000342401270D4686F8A10004FB026486F83C
:104FA000A07038340FCD0FC40FCD0FC40FCD0FC478
:104FB0002B683046624671462360FFF7E2FE336895
:104FC00000205F6286F8A17086F8A000F8BD90F816
:104FD000A10070470368F7B50446D80703D42368D7
:104FE000990752D4A5E0964B9A6802F00C02042A65
:104FF00007D09A6802F00C02082A0BD15B685A02AB
:1050000008D58F4B1B689B03E9D56368002BE6D15D
:10501000012074E163688A4DB3F5803F13D05BB91A
:105020002B6823F480332B602B6823F480232B60C0
:10503000FEF7A2FA064624E0B3F5A02F2B6806D1AE
:1050400043F480232B602B6843F4803305E023F482
:1050500080332B602B6823F480232B60FEF78CFABF
:10506000774D06462B689F03B9D4FEF785FA801B5F
:105070006428F7D9032042E1FEF77EFA801B6428FA
:10508000F8D82B689803F7D4A9E76D4B9A6812F00B
:105090000C0F07D09A6802F00C02082A17D15B683F
:1050A000590214D4664B1A68920702D5E268012AA5
:1050B000AED11A68F82191FAA1F12069B1FA81F113
:1050C00022F0F80200FA01F10A431A6031E0E368C5
:1050D0005B4DF3B12B6843F001032B60FEF74CFAF4
:1050E00006462B6856489B0705D4FEF745FA801BF9
:1050F0000228F6D9BEE70368F82292FAA2F22169E3
:10510000B2FA82F223F0F80301FA02F213430360C9
:105110000FE02B6823F001032B60FEF72DFA064603
:105120002B689F0705D5FEF727FA801B0228F7D9C1
:10513000A0E723681E0703D423685D0749D522E052
:1051400063693F4D7BB16B6F43F001036B67FEF703
:1051500013FA06466B6F9807EED4FEF70DFA801B24
:105160000228F7D986E76B6F23F001036B67FEF720
:1051700003FA06466B6F9907DED5FEF7FDF9801B33
:105180000228F7D976E72E4B2E4D1A6C42F080524A
:105190001A641B6C03F080530193019B2B6843F44A
:1051A00080732B60FEF7E8F906462B68DA0514D504
:1051B000A368234D012B16D12B6F43F001032B67FE
:1051C00041F28835FEF7D8F91D4E0746336F9B072D
:1051D00026D5A269002A37D177E0FEF7CDF9801BEA
:1051E0006428E2D946E76BB92B6F41F2883723F088
:1051F00001032B672B6F23F004032B67FEF7BCF929
:10520000064619E0052B2B6F03D143F004032B67EF
:10521000D2E723F001032B672B6F23F00403CEE7C3
:10522000FEF7AAF9C01BA842D0D923E7FEF7A4F9DC
:10523000801BB8423FF61EAF2B6F9807F6D4C8E725
:1052400000380240007000402E4DAB6803F00C03A4
:10525000082B3FF4DDAE2B68022A23F080732B600D
:1052600041D1FEF789F907462B68264E99012ED4C5
:1052700047F6C07292FAA2F24FF44033B2FA82F7C4
:1052800093FAA3F34FF07062B3FA83F592FAA2F2A5
:10529000E069B2FA82F1236A626A0343BA4043EAE0
:1052A0000200A36A5A08013A02FA05F3E26A0343CC
:1052B0008A4013437360336843F080733360FEF7B2
:1052C0005BF9044633689A0107D5002017E0FEF722
:1052D00053F9C01B0228C7D9CCE6FEF74DF9001BD5
:1052E0000228EFD9C6E6FEF747F904462B689B0172
:1052F000EBD5FEF741F9001B0228F7D9BAE603B057
:10530000F0BD00BF003802401B498B6803F00C035E
:10531000042B2CD0082B2CD1486847F6C0724B6860
:1053200000F03F0013F4800F4B6892FAA2F247F6A8
:10533000C071B2FA82F201EA030121FA02F114BF4C
:105340000E4A0F4AB2FBF0F00B4A00FB01F34FF498
:105350004030526890FAA0F002F44032B0FA80F087
:1053600022FA00F001304000B3FBF0F07047034830
:1053700070470348704700BF0038024040787D0105
:105380000024F400504A136803F00F038B422DE908
:10539000F04104460D460AD32168880714D54B48CE
:1053A000836823F0F002A368134383600CE0136862
:1053B00023F00F030B431360136803F00F039942AC
:1053C000EAD00120BDE8F081C90706D43E4A13683F
:1053D00003F00F039D4242D34BE062683B4B012A2E
:1053E000196802D111F4003F06E0022A02D111F03F
:1053F000007F01E011F0020FE3D0996841F2883894
:10540000324F21F003010A439A60FEF7B5F8636852
:105410000646012B0CD1BB6803F00C03042BD5D03E
:10542000FEF7AAF8801B4045F5D90320BDE8F081BE
:10543000022B0FD1BB6803F00C03082BC6D0FEF77C
:105440009BF8801B4045F5D9EFE7FEF795F8801BE8
:105450004045EAD8BB6813F00C0FF6D1B6E71368E5
:1054600023F00F032B431360136803F00F039D42D7
:10547000A7D121684A0706D51448836823F4E0526F
:10548000E368134383600B0707D5104A21699368CB
:1054900023F4604343EAC1039360FFF735FF0B4BEE
:1054A000F0229B6892FAA2F2B2FA82F203F0F003C1
:1054B000D340074AD35CD840064B1860002009F05F
:1054C00091FA0020BDE8F081003C02400038024023
:1054D000A8F0020844000120014B1868704700BF83
:1054E00044000120084B4FF460429B6892FAA2F2FC
:1054F000B2FA82F203F46043D340044AD35C044A14
:105500001068D840704700BF00380240B8F0020869
:10551000440001200F2303600B4B9A6802F0030242
:1055200042609A6802F0F00282609A6802F4E052E7
:10553000C2609B68DB0803F4E0530361034B1B6804
:1055400003F00F030B60704700380240003C02403C
:1055500003682DE9F74F13F0010604460BD0B64A55
:10556000916821F400019160466B91683143B6FA6D
:1055700086F67609916013F4002512D0AE49E56BEA
:10558000D1F88C20B5F5801F22F4401208BF012607
:1055900042EA050216BFB5FA85F500256D09C1F886
:1055A0008C20D80211D5A448216CD0F88C20B1F5FC
:1055B000800F22F4400242EA0102C0F88C2003D09E
:1055C000002908BF012500E0012613F0807F18BFE5
:1055D000012699065DD5984B984F1A6C42F080527F
:1055E0001A641B6C03F080530193019B3B6843F4E6
:1055F00080733B60FDF7C0FF80463B68DA0507D447
:10560000FDF7BAFFC8EB00006428F6D9032040E399
:10561000894F3B6F13F440730FD1226B02F4407338
:10562000B3F5407F844B2BD1996821F4F81022F018
:10563000704121F44071014325E0226B02F4407275
:105640009342EAD03B6F3A6F23F4407342F48032C6
:105650003A673A6F22F480323A673B673B6FDB0769
:10566000DBD5FDF789FF41F2883980463B6F98070B
:10567000D3D4FDF781FFC8EB00004845F6D9C5E754
:10568000996821F4F8119960C2F30B02196F0A436B
:105690001A672368D9060CD5674AD2F88C1021F016
:1056A0008071C2F88C10D2F88C00A16B0143C2F853
:1056B0008C105A0408D56048D0F8902022F440316C
:1056C000626E0A43C0F890201F0408D55A48D0F8EB
:1056D000902022F44021A26E0A43C0F89020D80303
:1056E00008D55548D0F8902022F44011E26E0A43C4
:1056F000C0F89020990308D54F48D0F8902022F4A4
:105700004001226F0A43C0F890205A0608D54A4843
:10571000D0F8902022F00301626C0A43C0F8902078
:105720001F0608D54448D0F8902022F00C01A26C46
:105730000A43C0F89020D80508D53F48D0F89020FB
:1057400022F03001E26C0A43C0F89020990508D598
:105750003948D0F8902022F0C001226D0A43C0F8E9
:1057600090205A0508D53448D0F8902022F4407192
:10577000626D0A43C0F890201F0508D52E48D0F866
:10578000902022F44061A26D0A43C0F89020D80412
:1057900008D52948D0F8902022F44051E26D0A4300
:1057A000C0F89020990408D52348D0F8902022F41E
:1057B0004041226E0A43C0F890205A0208D51E4884
:1057C000D0F8902022F08061A26F0A43C0F89020A8
:1057D0009F020CD51848E16FD0F89020B1F1006F0E
:1057E00022F0006208BF01250A43C0F8902013F0A0
:1057F000080F18BF0125580308D50F48D0F890208E
:1058000022F04071626F0A43C0F89020190209D556
:105810000948D0F8902022F08051D4F880200A4323
:10582000C0F89020012E0BD0B3F1007F08D0012DDD
:1058300040F08C8123E100BF00380240007000403E
:10584000C84E336823F080633360FDF795FE07464A
:105850003368DFF810E31A0105D5FDF78DFEC01B94
:105860006428F5D9D2E62768FB073CD5636BD3BB28
:10587000DEF884004FF4403898FAA8F94FF07066CB
:10588000B9FA89F9DEF8842096FAA6FC47F6C07AC0
:10589000BCFA8CFC9AFAAAFABAFA8AFA98FAA8F828
:1058A000B8FA88F896FAA6F64FF0E043B6FA86F60C
:1058B00093FAA3F3B3FA83FB6168A36800F4403062
:1058C00001FA0AF102F0706203FA0BF320FA09F010
:1058D00022FA0CF20B4300FA08F1194302FA06F31C
:1058E0000B43CEF884303E0303D5E36BB3F5801F42
:1058F00005D0F80249D5236CB3F5800F45D1DFF808
:1059000064E24FF44038DEF8840098FAA8F94FF0CA
:10591000E046B9FA89F9DEF8842096FAA6FC47F643
:10592000C07BBCFA8CFC9BFAABFBBBFA8BFB98FAF6
:10593000A8F84FF07063B8FA88F893FAA3F3B3FAB3
:1059400083FA96FAA6F6636800F4403002F0E0426B
:10595000B6FA86F603FA0BF1E36820FA09F022FAA8
:105960000CF203FA0AF30B4300FA08F1194302FAA6
:1059700006F30B43CEF88430DEF88C30626A23F0F5
:105980001F03013A1343CEF88C30F9013CD5DFF800
:10599000D4E14FF07068DEF8840098FAA8F94FF06F
:1059A000E046B9FA89F9DEF8842096FAA6FC47F6B3
:1059B000C07BBCFA8CFC9BFAABFB4FF44033BBFAC8
:1059C0008BFB93FAA3F3B3FA83FA98FAA8F8B8FA20
:1059D00088F896FAA6F6636800F0706002F0E0427C
:1059E000B6FA86F603FA0BF1236920FA09F022FAD7
:1059F0000CF203FA0AF30B4300FA08F1194302FA16
:105A000006F30B43CEF88430BA0126D547F6C07EA4
:105A10009EFAAEFE4FF44030BEFA8EFE90FAA0F031
:105A20004FF07062B0FA80F792FAA2F24FF0E043C2
:105A3000B2FA82F693FAA3F3B3FA83F120696368AA
:105A4000E268B84003FA0EF3B24003431A43A36876
:105A50008B401343434AC2F88430424E336843F0CC
:105A600080633360FDF788FD074633681B013FF50F
:105A7000DEAEFDF781FDC01B6428F6D9C6E5394DC1
:105A80002B6823F080532B60FDF776FD06462B68CC
:105A90009F005DD425682E0360D4E80264D4A90277
:105AA00000F1AD802A0745D52E4F4FF07065D7F82D
:105AB000882095FAA5FC4FF44036BCFA8CFCD7F848
:105AC000880096FAA6F847F6C079B8FA88F899FAE5
:105AD000A9F9B9FA89F996FAA6F6B6FA86F695FA08
